{
  "contractName": "MarketPlace",
  "abi": [
    {
      "constant": true,
      "inputs": [],
      "name": "listingCount",
      "outputs": [
        {
          "name": "",
          "type": "uint256"
        }
      ],
      "payable": false,
      "stateMutability": "view",
      "type": "function"
    },
    {
      "constant": true,
      "inputs": [
        {
          "name": "",
          "type": "uint256"
        }
      ],
      "name": "listings",
      "outputs": [
        {
          "name": "id",
          "type": "uint256"
        },
        {
          "name": "name",
          "type": "string"
        },
        {
          "name": "link",
          "type": "string"
        }
      ],
      "payable": false,
      "stateMutability": "view",
      "type": "function"
    },
    {
      "inputs": [],
      "payable": false,
      "stateMutability": "nonpayable",
      "type": "constructor"
    },
    {
      "constant": false,
      "inputs": [
        {
          "name": "_name",
          "type": "string"
        },
        {
          "name": "_link",
          "type": "string"
        }
      ],
      "name": "addListing",
      "outputs": [],
      "payable": false,
      "stateMutability": "nonpayable",
      "type": "function"
    }
  ],
  "bytecode": "0x608060405234801561001057600080fd5b506100946040805190810160405280600681526020017f476f6f676c6500000000000000000000000000000000000000000000000000008152506040805190810160405280601281526020017f68747470733a2f2f676f6f676c652e636f6d000000000000000000000000000081525061011c640100000000026401000000009004565b6101176040805190810160405280600881526020017f457468657269756d0000000000000000000000000000000000000000000000008152506040805190810160405280601481526020017f68747470733a2f2f657468657265756d2e6f726700000000000000000000000081525061011c640100000000026401000000009004565b610250565b60016000815480929190600101919050555060606040519081016040528060015481526020018381526020018281525060008060015481526020019081526020016000206000820151816000015560208201518160010190805190602001906101869291906101ab565b5060408201518160020190805190602001906101a39291906101ab565b509050505050565b828054600181600116156101000203166002900490600052602060002090601f016020900481019282601f106101ec57805160ff191683800117855561021a565b8280016001018555821561021a579182015b828111156102195782518255916020019190600101906101fe565b5b509050610227919061022b565b5090565b61024d91905b80821115610249576000816000905550600101610231565b5090565b90565b61050f8061025f6000396000f300608060405260043610610057576000357c0100000000000000000000000000000000000000000000000000000000900463ffffffff168063024ca4f91461005c578063a9b07c261461010b578063de74e57b14610136575b600080fd5b34801561006857600080fd5b50610109600480360381019080803590602001908201803590602001908080601f0160208091040260200160405190810160405280939291908181526020018383808284378201915050505050509192919290803590602001908201803590602001908080601f016020809104026020016040519081016040528093929190818152602001838380828437820191505050505050919291929050505061024f565b005b34801561011757600080fd5b506101206102de565b6040518082815260200191505060405180910390f35b34801561014257600080fd5b50610161600480360381019080803590602001909291905050506102e4565b604051808481526020018060200180602001838103835285818151815260200191508051906020019080838360005b838110156101ab578082015181840152602081019050610190565b50505050905090810190601f1680156101d85780820380516001836020036101000a031916815260200191505b50838103825284818151815260200191508051906020019080838360005b838110156102115780820151818401526020810190506101f6565b50505050905090810190601f16801561023e5780820380516001836020036101000a031916815260200191505b509550505050505060405180910390f35b60016000815480929190600101919050555060606040519081016040528060015481526020018381526020018281525060008060015481526020019081526020016000206000820151816000015560208201518160010190805190602001906102b992919061043e565b5060408201518160020190805190602001906102d692919061043e565b509050505050565b60015481565b6000602052806000526040600020600091509050806000015490806001018054600181600116156101000203166002900480601f0160208091040260200160405190810160405280929190818152602001828054600181600116156101000203166002900480156103965780601f1061036b57610100808354040283529160200191610396565b820191906000526020600020905b81548152906001019060200180831161037957829003601f168201915b505050505090806002018054600181600116156101000203166002900480601f0160208091040260200160405190810160405280929190818152602001828054600181600116156101000203166002900480156104345780601f1061040957610100808354040283529160200191610434565b820191906000526020600020905b81548152906001019060200180831161041757829003601f168201915b5050505050905083565b828054600181600116156101000203166002900490600052602060002090601f016020900481019282601f1061047f57805160ff19168380011785556104ad565b828001600101855582156104ad579182015b828111156104ac578251825591602001919060010190610491565b5b5090506104ba91906104be565b5090565b6104e091905b808211156104dc5760008160009055506001016104c4565b5090565b905600a165627a7a723058203f982399ee9e86e2b76feac125488788e1c6c2fa04297ed2a644686369ee7eaa0029",
  "source": "pragma solidity ^0.4.24;\n\ncontract MarketPlace {\n  struct Listing {\n    uint id;\n    string name;\n    string link;\n  }\n\n  mapping(uint => Listing) public listings;\n  \n  uint public listingCount;\n\n  function  MarketPlace () public {\n    addListing('Google', 'https://google.com');\n    addListing('Etherium', 'https://ethereum.org');\n  }\n\n  function addListing(string _name, string _link) public {\n    listingCount++;\n    listings[listingCount] = Listing(listingCount, _name, _link);\n  }\n}\n",
  "sourcePath": "/home/omid/source-code/badgir/contracts/MarketPlace.sol",
  "compiler": {
    "name": "solc",
    "version": "0.4.24+commit.e67f0147.Emscripten.clang"
  },
  "schemaVersion": "2.0.1",
  "updatedAt": "2018-11-25T20:51:08.211Z"
}